:020000040800F2
:10000000C80600209D010008D5700008B529000829
:10001000D1700008E90900083D9A000800000000BE
:10002000000000000000000000000000117800083F
:10003000150D00080000000039750008A17E0008B9
:10004000B7010008B7010008B7010008B7010008B0
:10005000B7010008B7010008B7010008B7010008A0
:10006000B7010008B7010008B7010008B701000890
:10007000ED090008B7010008610A0008B70100088F
:10008000B7010008B7010008B7010008B701000870
:10009000B7010008B7010008B7010008B701000860
:1000A000B7010008B7010008B7010008B701000850
:1000B0000D7F0008B7010008B7010008B70100086C
:1000C000B7010008B7010008B7010008B701000830
:1000D000B7010008B7010008B7010008B701000820
:1000E000B7010008B7010008B7010008B701000810
:1000F000B7010008B7010008B7010008B701000800
:10010000B7010008B7010008497F0008B7010008DF
:10011000B7010008B7010008B7010008B7010008DF
:10012000B7010008B7010008890A0008B7010008F4
:10013000B7010008B7010008B7010008B7010008BF
:10014000B7010008B7010008B7010008B7010008AF
:10015000B7010008B7010008B7010008B70100089F
:10016000B7010008B7010008B7010008B70100088F
:10017000B7010008B7010008B7010008B70100087F
:10018000B7010008B7010008DFF80CD000F0D0FB81
:1001900000480047B5B10008C8060020064880475F
:1001A00006480047FEE7FEE7FEE7FEE7FEE7FEE75C
:1001B000FEE7FEE7FEE7FEE7A57E000889010008EE
:1001C00040EA01039B0703D009E008C9121F08C0D9
:1001D000042AFAD203E011F8013B00F8013B521E59
:1001E000F9D27047D2B201E000F8012B491EFBD2D0
:1001F00070470022F6E710B513460A460446194632
:10020000FFF7F0FF204610BD2DE9FE4F804681EA42
:100210000300C00F0C46009021F0004123F0004580
:10022000B8EB0200A94105D24046214690461C4643
:100230000B46024623F00040104347D0270DC7F37A
:100240000A00C3F30A510290401A019040286BDA69
:10025000C3F3130040F4801B0098924620B10023A2
:10026000D2EB030A63EB0B0B01985946C0F1400235
:10027000504600F02EFA06460D4650465946019A61
:1002800000F046FA10EB08006141002487EA1152A1
:1002900084EAE7731A4340D0009A62B3019A012AB4
:1002A0004FEA075215DC001B61EB02014FF00042E0
:1002B00002EA0752CDE90042001C41F580113246A6
:1002C0002B4600F07DFA03B0BDE8F08F4046214692
:1002D000F9E7001B61EB0201001C41F580130018D7
:1002E0005B412018A2F5001747EB030140EAD570E7
:1002F000B6196D4111E06D084FEA360645EAC07542
:100300004FEA0752001B61EB0201001C41F580110E
:1003100049084FEA30000019514132462B4603B0DC
:10032000BDE8F04F00F03DBA0098012240000023E4
:10033000D0EB020263EBE073009821464FEAE074D1
:10034000B8EB000061EB0401E9E783F000435BE7F1
:1003500081F0004158E72DE9FE4F81EA030404F0E3
:10036000004421F0004100944FF0000B23F00043C3
:1003700050EA01045ED052EA03045BD0C3F30A548E
:10038000C1F30A552C44A4F2F3340194A0FB0254A7
:10039000C1F3130141F48011C3F3130343F4801339
:1003A00001FB024400FB034E840A970A44EA81548D
:1003B00047EA8357A4FB076802958D0A05FB07856A
:1003C0004FEA932C04FB0C542705029D4FEA065874
:1003D00047EA1637B5EB08056EEB070C870E920E51
:1003E00047EA811742EA8312A7FB0201B6EB0B0131
:1003F00064EB00042B0D43EA0C335E1844EB1C50F5
:10040000DA465146E7FB0201C5F313044FEA0B330A
:1004100043EA14534FEA0432019C43EA0603A4F171
:100420000C040294009CCDE900B400F0C9F903B0BB
:10043000BDE8F08F00200146F9E72DE9F04D81EA93
:10044000030404F0004B21F0004514464FF0000A6D
:1004500023F0004150EA050220D054EA01021DD0E9
:10046000C5F30A570246C5F31303C1F31300C1F3E2
:100470000A5640F4801543F48013A7EB0608101BBE
:10048000D64608F2FD3873EB050002D308F10108E7
:1004900001E092185B41B8F1000F03DA0020014639
:1004A000BDE8F08D00204FF48011064684460EE032
:1004B000171B73EB050705D3121B63EB05030643FC
:1004C0004CEA010C49084FEA300092185B4150EAAF
:1004D0000107EDD152EA030012D082EA040083EA58
:1004E0000501084305D0101BAB4106D201220023B1
:1004F00006E000224FF0004302E06FF001025310CB
:100500001AEB06004CEB085110EB0A0041EB0B0113
:10051000BDE8F04D00F045B90EB5C10F80EAE070BE
:100520000844CA07002140F233438DE80E000A4612
:100530000B4600F045F903B000BD0EB540F2334163
:1005400002910021CDE900110A460B4600F038F96E
:1005500003B000BDC1F30A5210B5C1F3130140F25C
:10056000FF3341F480119A4201DA002010BD40F2BD
:1005700033439A42A2F2334203DC524200F0B8F80D
:1005800010BD904010BD00F0004230F000400AD095
:10059000C10D01F56071C0F3160042EA0151C208B5
:1005A00040071143704700200146704730B5041ED4
:1005B00071F1000404DB4FF00044404264EB0101A0
:1005C000141E73F1000405DB1C464FF00043524239
:1005D00063EB04038B4208BF824230BD30B5041E7A
:1005E00071F1000404DB4FF00044404264EB010170
:1005F000141E73F1000405DB1C464FF00043524209
:1006000063EB0403994208BF904230BD01F0004300
:1006100030B421F0004150EA010206D00A0DA2F5E3
:100620006072C1F31301002A02DC30BC0020704765
:10063000440F44EAC104C100E01830BC00EBC250D2
:1006400000F078B830B50B46014600202022012486
:1006500009E021FA02F59D4205D303FA02F5491B90
:1006600004FA02F52844151EA2F10102F1DC30BDA6
:100670002DE9F05F0546002092469B4688460646D7
:10068000814640241BE0284641464746224600F06A
:100690002FF853465A46C01A914110D311461846B6
:1006A000224600F016F82D1A67EB01084F46224645
:1006B0000120002100F00DF817EB00094E41201E2B
:1006C000A4F10104DFDC484631462A464346BDE832
:1006D000F09F202A04DB203A00FA02F10020704744
:1006E0009140C2F1200320FA03F319439040704770
:1006F000202A04DB203A21FA02F00021704721FA77
:1007000002F3D040C2F120029140084319467047DD
:10071000202A06DBCB17203A41FA02F043EAE073C5
:1007200006E041FA02F3D040C2F1200291400843B2
:10073000194670470029A8BF7047401C490008BFF0
:1007400020F00100704710B4B0FA80FC00FA0CF001
:1007500050EA010404BF10BC704749B1CCF1200439
:1007600021FA04F411FA0CF118BF012121430843C6
:10077000A3EB0C01CB1D4FEA00614FEA102042BFF2
:10078000002010BC704700EBC35010440029A4BFE8
:1007900010BC7047401C490008BF20F0010010BC8D
:1007A000704710B5141E73F1000408DA401C41F1C3
:1007B000000192185B411A4301D120F0010010BDE5
:1007C0002DE9F04D92469B4611B1B1FA81F202E05B
:1007D000B0FA80F220329046FFF77BFF04460F46C6
:1007E00040EA0A0041EA0B0153465A46084313D037
:1007F000114653EA010019D0C8F140025046FFF7F4
:1008000077FF05460E46504659464246FFF761FFC0
:10081000084305D0012004E020463946BDE8F08DAC
:100820000020054346EAE0762C4337430A986305E7
:10083000E40AA0EB08000022FD0A44EA47540A300B
:1008400002D500200146E9E7010510196941DDE9FB
:10085000084500196941BDE8F04DA2E72DE9F04DCA
:1008600000231A461B1A8A4103DB00200146BDE81B
:10087000F08DC1F30A52C1F3130141F480154FF01A
:10088000000BD10702D100186D41521E002704460B
:1008900040F2FF11384601EB620A3E4680460246AE
:1008A00000204FF48011FFF723FFC2197141BB18DC
:1008B00046EB0100B4EB030C75EB000C04D3E41A17
:1008C00065EB000517460E46241908F101006D413D
:1008D00080463428E3DDF91946EB0600091BA841E0
:1008E00003D24FF0FF32134601E0002213461BEB08
:1008F000070046EB0A51BDE8F04DFFF752BFC1F3C8
:100900000A52C1F3130140F2FF3341F480119A42BD
:1009100002DA00200146704740F233439A42A2F2C5
:10092000334202DC5242FFF7E3BEFFF7D2BE0000C3
:10093000064C074D06E0E06840F0010394E807002C
:1009400098471034AC42F6D3FFF722FC64D4000879
:1009500084D4000870B5C1F30A5201F000450024A8
:10096000C1F3130140F2FF3341F480119A4201DADE
:10097000002070BD40F233439A42A2F2334203DCBE
:100980005242FFF7B5FE00E090402C43F1D04042C8
:1009900070BD70B58C1810F8015B15F0070301D11C
:1009A00010F8013B2A1106D110F8012B03E010F8D2
:1009B000016B01F8016B5B1EF9D12B0705D40023F5
:1009C000521E0DD401F8013BFAE710F8013BCB1A97
:1009D000921C03E013F8015B01F8015B521EF9D58C
:1009E000A142D8D3002070BD00BFFEE710B5164964
:1009F000164800F011F9012824D115480078FF2885
:100A00001CD11348007AC8B9012012490870104857
:100A10004078114908700E48807848700C48C078BA
:100A200088700B4800790D49087009484079487072
:100A30000748807988700648C079C8700249034821
:100A400000F0BAF810BD00000088001028600240D5
:100A500060020020E0000020E100002000010020F2
:100A600010B50749074800F0D7F8012807D1002141
:100A7000044800F0BBF80249024800F09DF810BDA0
:100A8000008000185860024010B52DED048B3B49E2
:100A90003B4800F0C1F801286DD13A48407C394903
:100AA000897C40EA012000B2374908800846B0F945
:100AB0000000FFF731FD41EC190B9FED340B53ECB7
:100AC000102BFFF748FC41EC180B9FED320B53EC59
:100AD000102BFFF7B2FC314A03C22B48B0F90000DB
:100AE000FFF71AFD41EC190B9FED2D0B53EC102B6A
:100AF000FFF731FC41EC180B9FED260B53EC102B4C
:100B0000FFF79BFC284A03C201F02AF801F0B0FB72
:100B1000264890ED001BB0EE410AF0EE610A51EC60
:100B2000100BFFF773FD22494860204890ED021B2F
:100B3000B0EE410AF0EE610A51EC100BFFF766FDD2
:100B40001B498860194890ED0C1BB0EE410AF0EE8D
:100B5000610A51EC100BFFF759FD1549C8601421CB
:100B6000144800F0D5F80121124800F03FF803497D
:100B7000034800F021F8BDEC048B10BD008020106C
:100B800040640240A0020020980000200000000005
:100B900000806640000000000000E040A00000204F
:100BA000112D4454FB210940A8000020C801002059
:100BB00080020020586002400246094B9A4201D24E
:100BC000084801E00648103801F000531BB1064BFD
:100BD0000B40C36002E0044B0B4083607047000091
:100BE00010640240006002407D0F7D0F21B1026859
:100BF00042F00102026003E0026822F0010202609A
:100C00007047014600200A6802F001020AB1012083
:100C100000E000207047000070B50246002000246C
:100C20000025124EB24201D2114B01E00F4B103B96
:100C3000104E0E4036B11E2606EAD124166806EA8A
:100C4000040502E0566906F0800501F000560EB179
:100C50005C6800E01C68084E344004EA010616B1E6
:100C60000DB1012000E0002070BD000010640240C2
:100C7000006002403C0F3C0F7D0F7D0F10B501F06E
:100C800080034BB122B1436943F08003436103E029
:100C9000436923F08003436180290BD02AB10368A4
:100CA00001F01E042343036004E0036801F01E0406
:100CB000A343036010BD000010B500220268134B6F
:100CC0001A40CC680B6823434C6923438C69234347
:100CD000CC6923430C6A23434C6A23438C6A234325
:100CE0004C6B23438C6B23431A430260426922F00E
:100CF0000702D1E90B3423431A4342610B69436075
:100D00004B6883608B68C36010BD00003F801CF09F
:100D100041607047704700009FED0A0B0B4901EBE3
:100D2000801181ED080B094901EB80110968074A20
:100D300002EB801251600021044A02EB80129160A4
:100D400070470000000000000000000018000020B4
:100D500010B52DED108B8AB09FEDA40BB0EE40AA1C
:100D6000F0EE60AAA349B1F900104842FFF7D4FBA6
:100D700041EC1E0B9FEDA00B53EC102BFFF7EBFA91
:100D800041EC1D0B9FED9E0B53EC102BFFF755FB19
:100D900041EC1B0B9749B1F902104842FFF7BCFB2D
:100DA00041EC1F0B9FED940B53EC102BFFF7D3FA84
:100DB00041EC1E0B9FED920B53EC102BFFF73DFB0C
:100DC00041EC1D0B9FED8C0B53EC102BFFF71CFA25
:100DD00041EC1C0B002401E1B0EE4B0AF0EE6B0A73
:100DE00009F02AF8B0EE40EAF0EE60EA012101EBEA
:100DF0004401854A52F82100FFF78EFB41EC1F0B9E
:100E000053EC1E2BFFF7A7FA41EC1D0BB0EE4C0A7A
:100E1000F0EE6C0A09F010F8B0EE40EAF0EE60EA8D
:100E20006100794A52F82100FFF776FB41EC1F0B75
:100E300053EC1E2BFFF78FFA53EC1D2BCDE900016D
:100E40009DED000B51EC100BFFF77FFAB0EE4C0A52
:100E5000F0EE6C0ACDE9040108F08AFFB0EE40EA3A
:100E6000F0EE60EA6100684A52F82100FFF754FB97
:100E700041EC1F0B53EC1E2BFFF76DFA41EC1D0BE1
:100E8000B0EE4B0AF0EE6B0A08F072FFB0EE40EAEB
:100E9000F0EE60EA012101EB44015B4A52F82100C7
:100EA000FFF73AFB41EC1F0B53EC1E2BFFF753FAF5
:100EB00053EC1D2BCDE900019DED000B51EC100B07
:100EC000FFF743FACDE902019DED040B53EC102B23
:100ED0009DED020B51EC100BFFF7AFFACDE90601C7
:100EE0009DED060B08F0D8FDB0EE408AF0EE608A6A
:100EF00053EC1B2B51EC180BFFF727FA41EC1D0BA1
:100F0000B0EE4D0AF0EE6D0A08F032FFB0EE409AF6
:100F1000F0EE609A9FED3D0B53EC102B51EC190B4A
:100F2000FFF744FB08D39FED3B0B53EC102B51EC28
:100F3000190BFFF753FB16D26100334A52F8210018
:100F4000FFF7EAFA41EC1D0B53EC192B51EC1A0B8D
:100F5000FFF701FA41EC1E0B53EC1D2BFFF76DFA66
:100F6000CDE9080127E0012101EB4401264A52F8AE
:100F70002100FFF7D1FA41EC1D0B53EC1C2B51EC77
:100F8000180BFFF7E2F9CDE906019DED060B08F01D
:100F9000EFFEB0EE40FAF0EE60FA53EC1A2B51EC93
:100FA0001F0BFFF7D8F941EC1E0B53EC1D2BFFF77D
:100FB00044FACDE90801194800EB841080ED0C8B50
:100FC0009DED080B154800EB841080ED060B1348CF
:100FD00000EB841080ED040B601CC4B2022CFFF601
:100FE000FBAE0AB0BDEC108B10BD0000000000008D
:100FF0000070A740B0000020112D4454FB2109408F
:10100000000000000000E040B80100209A99999982
:101010009999B9BF9A9999999999B93F180000205F
:1010200070B52DED0A8B002489E0012000EB44000F
:10103000464951F82000002101EB4401434A52F88F
:101040002110451A002D25DD414901EB841191F94C
:101050003800FFF761FA41EC190B2846FFF75CFAFC
:1010600041EC1B0B3A4800EB841090ED041BB0EEF2
:10107000410AF0EE610A53EC102B51EC1B0BFFF709
:101080006AF941EC1A0B53EC192BFFF764F941ECA8
:10109000180B24E02E4901EB841191F93800FFF779
:1010A0003BFA41EC190B2846FFF736FA41EC1B0BD3
:1010B000274800EB841090ED061BB0EE410AF0EEDD
:1010C000610A53EC102B51EC1B0BFFF744F941EC78
:1010D0001A0B53EC192BFFF73EF941EC180B1D4985
:1010E000B1F902101B4AB2F90020881AFFF714FA6E
:1010F00041EC1C0B9FED180B53EC102BFFF72BF959
:1011000041EC1B0B9FED160B53EC102BFFF795F9E1
:1011100041EC1A0B9FED140B53EC102BFFF774F8F6
:1011200041EC190B53EC192B51EC180BFFF785F917
:10113000074A02EB8412C2E90A01601CC4B2022C05
:10114000FFF673AFBDEC0A8B70BD0000B801002044
:1011500018000020B0000020112D4454FB2109404C
:10116000000000000000E040553855297A6A3F40F1
:1011700010B5014600200AE0064A02EB8012926890
:1011800001EB4003044C44F82320421CD0B2022857
:10119000F2DB10BD18000020B80100207FB5002050
:1011A000FE49087006F0ACFB0020FD490880FDA058
:1011B00018210B464FF49672CDE90010062100204D
:1011C00005F034FF35E0FE4890F8200000F080067E
:1011D000FB48416800208847F94890F8200000F05B
:1011E000800018B316BBF6488089F6490988884202
:1011F0001FDAF348C08AF3494988884219DAF04A6D
:10120000D18A908908F04EF80446052C00D17FBDA4
:10121000132C0AD1E148007808B9012000E0002031
:10122000DE49087006F06CFB03E003E0012009F0E2
:101230004DFFC8E700BF0020D849087006F060FBEA
:101240000020D7490880E0A018210B464FF4967281
:10125000CDE900100621002005F0E8FEDEA01821EF
:101260000B464FF49672CDE900102A21002005F0BC
:10127000DDFEDFA018210B464FF49672CDE9001079
:101280004E21002005F0D2FE35E0CD4890F8200038
:1012900000F08006CA48416800208847C84890F896
:1012A000200000F0800018B316BBC5488089C549EE
:1012B000098888421FDAC248C08AC24949888842E0
:1012C00019DABF4AD18A908907F0ECFF0446052C51
:1012D00000D19CE7132C0AD1B048007808B901204E
:1012E00000E00020AD49087006F00AFB03E003E0CF
:1012F000012009F0EBFEC8E700BF002504E0284606
:10130000FFF70AFD681CC5B2022DF8DB01F048FAB0
:101310004FF47A7009F0DAFE0020BD4908809F4939
:10132000087006F0EDFA00209D490880B9A0182148
:101330000B464FF49672CDE900100621002005F00F
:1013400075FEBAA018210B464FF49672CDE9001035
:101350002A21002005F06AFE61E0B94890ED000BFB
:101360008DED020BB7A018210B464FF49672CDE914
:1013700000104E21002005F059FEB6488068B6A145
:1013800018221346CDE9002102904FF49672722183
:10139000002005F04BFEAF48806CB4A11822134624
:1013A000CDE9002102904FF496729621002005F0BD
:1013B0003DFE834890F8200000F080068048416898
:1013C000002088477E4890F8200000F0800018B385
:1013D00016BB7B4880897B49098888421FDA784898
:1013E000C08A78494988884219DA754AD18A908931
:1013F00007F058FF0446052C00D108E7132C0AD14A
:101400006648007808B9012000E0002063490870B0
:1014100006F076FA03E003E0012009F057FE9CE7AE
:1014200000BF0020FFF7A4FE00205C49087006F012
:1014300067FA00205A49088091A018210B464FF402
:101440009672CDE900100621002005F0EFFD62A0A4
:1014500018210B464FF49672CDE900102A21002086
:1014600005F0E4FD62A018210B464FF49672CDE919
:1014700000104E21002005F0D9FD35E0504890F8CD
:10148000200000F080064E484168002088474C4804
:1014900090F8200000F0800018B316BB48488089FF
:1014A0004849098888421FDA4548C08A4549498821
:1014B000884219DA424AD18A908907F0F3FE04463D
:1014C000052C00D1A3E6132C0AD13448007808B9C2
:1014D000012000E000203149087006F011FA03E015
:1014E00003E0012009F0F2FDC8E700BF002504E099
:1014F0002846FFF711FC681CC5B2022DF8DB4FF43B
:1015000040404349488000202449087006F0F8F91B
:101510000020234908805EA018210B464FF49672E4
:10152000CDE900100621002005F080FD3FA0182124
:101530000B464FF49672CDE900102A21002005F0E9
:1015400075FDE9E03E4890ED000B8DED020B3DA0EE
:1015500018210B464FF49672CDE900104E21002061
:1015600005F064FD3B4880683BA118221346CDE995
:10157000002102904FF496727221002005F056FD72
:101580003448806C39A118221346CDE9002102901D
:101590004FF496729621002086E000003F01002063
:1015A00004010020496620737572652C20746F75E4
:1015B0006368207468652073637265656E0000005F
:1015C00008010020B6020020416C6F6E6720416E5A
:1015D000676C6520303A000046696E6420612072B5
:1015E00065666572656E6365206C696E65000000F6
:1015F0005468656E20746F75636820746865207325
:10160000637265656E20746F20737461727400007C
:10161000B0000020416C6F6E6720416E676C6520E2
:10162000303A5075736820336D000000546F756355
:10163000682073637265656E20746F20656E640048
:10164000A0000020312E416E676C65203D20256C86
:101650006600000018000020322E546F74616C2068
:1016600031203D20256C6C6400000000332E546F47
:1016700074616C2032203D20256C6C6400000000F9
:10168000416C6F6E6720416E676C652039303A009F
:10169000416C6F6E6720416E676C652039303A503F
:1016A00075736820336D000005F0C0FC204890F889
:1016B000200000F080061E484168002088471C4832
:1016C00090F8200000F0800018B316BB18488089FD
:1016D0001849098888421FDA1548C08A154949887F
:1016E000884219DA124AD18A908907F0DBFD044654
:1016F000052C00D18BE5132C0AD10F48007808B9CE
:10170000012000E000200C49087006F0F9F803E021
:1017100003E0012009F0DAFC14E700BF0120FFF725
:1017200027FDFFF715FB00F0B9FA00BF6FE50000D9
:1017300008010020B60200203F0100202DE9FF41F2
:101740000025A8464FF6FF7001F036F90020DA496F
:10175000087006F0D5F80020D8490880D8A01821D4
:101760000B464FF49672CDE900100621002005F0DB
:101770005DFC36E0D94890F8200000F08007D7489B
:10178000416800208847D54890F8200000F080008C
:1017900020B31FBBD1488089D1490988884220DA0B
:1017A000CE48C08ACE49498888421ADACB4AD18AC3
:1017B000908907F077FD0446052C01D1BDE8FF8133
:1017C000132C0AD1BC48007808B9012000E00020A1
:1017D000B949087006F094F803E003E0012009F02D
:1017E00075FCC7E700BF0020B349087006F088F811
:1017F0000020B2490880BBA018210B464FF4967216
:10180000CDE900100621002005F010FC35E0B348BA
:1018100090F8200000F08007B04841680020884719
:10182000AE4890F8200000F0800018B317BBAB481A
:101830008089AB49098888421FDAA848C08AA8492C
:101840004988884219DAA54AD18A908907F02AFD89
:101850000446052C00D1B1E7132C0AD19648007834
:1018600008B9012000E000209349087006F048F80C
:1018700003E003E0012009F029FCC8E700BF0026CF
:1018800004E03046FFF748FA701CC6B2022EF8DBBF
:1018900000F086FF4FF47A7009F018FC00208649AA
:1018A000087006F02DF8002084490880944890EDD7
:1018B000000B8DED020B93A018210B464FF496728E
:1018C000CDE900100621002005F0B0FB904890ED16
:1018D000080B8DED020B8FA018210B464FF496726A
:1018E000CDE900102A21002005F0A0FB884890EDEA
:1018F000180B8DED020B8BA018210B464FF496723E
:10190000CDE900104E21002005F090FB00BF9FEDB7
:10191000890B53EC102B7A4890ED000B51EC100B17
:10192000FEF75CFEF3D31BE09FED840B53EC102B12
:10193000734890ED000B51EC100BFEF74FFE0FD8E3
:10194000B8F1000F0CD17F48B0F900007E49088043
:101950000020FFF70DFC681CC5B24FF0010800E045
:10196000E2E700BFA0E09FED750B53EC102B64483D
:1019700090ED000B51EC100BFEF730FE07D8B8F1DC
:10198000000F17D1681CC5B24FF0010812E09FED9F
:10199000690B53EC102B5A4890ED000B51EC100BD7
:1019A000FEF704FE06D8B8F1000F03D0681CC5B2DC
:1019B0004FF000080A2D08DD6248B0F900006249C6
:1019C00048800120FFF7D4FB6FE04D4890ED000BFD
:1019D0008DED020B4BA018210B464FF49672CDE90A
:1019E00000100621002005F021FB494890ED080B6E
:1019F0008DED020B47A018210B464FF49672CDE9EE
:101A000000102A21002005F011FB414890ED180B31
:101A10008DED020B43A018210B464FF49672CDE9D1
:101A200000104E21002005F001FB48A018210B46B4
:101A30004FF49672CDE9010500917221002005F066
:101A4000F5FA264890F8200000F080072348416806
:101A500000208847214890F8200000F0800008B35B
:101A600007BB1E4880891E49098888421CDA1B482A
:101A7000C08A1B494988884216DA184AD18A908957
:101A800007F010FC0446052C00D197E6132C0AD170
:101A90000948007808B9012000E0002006490870D4
:101AA00005F02EFF00E000E05DE700BFFFF7B8FAA9
:101AB00000F0F4F800BF81E63F010020040100209F
:101AC000496620737572652C20746F756368207485
:101AD00068652073637265656E0000000801002070
:101AE000B6020020546F75636820746865207363C4
:101AF0007265656E20746F207374617274000000EB
:101B0000A0000020312E416E676C653A256C66009E
:101B100018000020322E4530204469733A256C6647
:101B200000000000332E4531204469733A256C666D
:101B30000000000000000000004065C00000000040
:101B40000000244098000020B0000020332E526F87
:101B5000746174696F6E20434E543A25750000001D
:101B600070B52DED088B002490E0204600F09AFD22
:101B70000546494800EB841000682E1A464800EBE1
:101B800084100560444800EB84100068424901EB72
:101B900084114968401A404901EB84118860002E85
:101BA00039DB3D4901EB841191F93800FEF7B4FCB3
:101BB00041EC190B3046FEF7AFFC41EC1B0B3648ED
:101BC00000EB841090ED041BB0EE410AF0EE610AC8
:101BD00053EC102B51EC1B0BFEF7BDFB41EC1A0B29
:101BE00053EC192BFEF7B7FB41EC180B2A4800EB1E
:101BF000841090ED081BB0EE410AF0EE610A53EC40
:101C0000102B51EC180BFEF7FFFA234A02EB84125B
:101C1000C2E9080138E0204901EB841191F938004C
:101C2000FEF77AFC41EC190B3046FEF775FC41ECEF
:101C30001B0B194800EB841090ED061BB0EE410A17
:101C4000F0EE610A53EC102B51EC1B0BFEF783FBFB
:101C500041EC1A0B53EC192BFEF77DFB41EC180BF2
:101C60000D4800EB841090ED081BB0EE410AF0EE39
:101C7000610A53EC102B51EC180BFEF7C5FA064A1B
:101C800002EB8412C2E90801601CC4B2022CFFF608
:101C90006CAFBDEC088B70BD180000207FB54FF60F
:101CA000FF7000F089FE0020A449087005F028FEAE
:101CB0000020A3490880A34890ED040B8DED020B92
:101CC000A1A018210B464FF4A072CDE90010062107
:101CD000002005F0ABF99B4890ED060B8DED020B53
:101CE0009DA018210B464FF4A072CDE900102A21C7
:101CF000002005F09BF9934890ED0A0B8DED020B47
:101D000099A018210B464FF4A072CDE900104E2186
:101D1000002005F08BF98B4890ED0C0B8DED020B3C
:101D200095A018210B464FF4A072CDE90010722146
:101D3000002005F07BF9834890ED140B8DED020B2C
:101D400091A018210B464FF4A072CDE90010962106
:101D5000002005F06BF97B4890ED160B8DED020B22
:101D60008DA018210B464FF4A072CDE90010BA21C6
:101D7000002005F05BF9734890ED1A0B8DED020B16
:101D800089A018210B464FF4A072CDE90010DE2186
:101D9000002005F04BF96B4890ED1C0B8DED020B0C
:101DA00085A018210B464FF4A072CDE900104FF426
:101DB0008171002005F03AF9BFE0834890F82000D7
:101DC00000F0800580484168002088477E4890F8F0
:101DD000200000F0800000287ED0002D7CD17A48C1
:101DE00080897A4909888842E6DA7748C08A774943
:101DF00049888842E0DA744AD18A908907F052FA19
:101E00000446052C02D0132C0CD100E07FBD4B48BA
:101E1000007808B9012000E000204849087005F06A
:101E20006FFD00BF00BF002045490880454890ED88
:101E3000040B8DED020B44A018210B464FF4A07249
:101E4000CDE900100621002005F0F0F83D4890EDA6
:101E5000060B8DED020B40A018210B464FF4A0722B
:101E6000CDE900102A21002005F0E0F8354890ED7A
:101E70000A0B8DED020B3CA018210B464FF4A0720B
:101E8000CDE900104E21002005F0D0F82D4890ED4E
:101E90000C0B8DED020B38A018210B464FF4A072ED
:101EA000CDE900107221002005F0C0F8254890ED22
:101EB000140B8DED020B34A018210B464FF4A072C9
:101EC000CDE900109621002005F0B0F81D4890EDF6
:101ED000160B8DED020B00E02CE02FA018210B4615
:101EE0004FF4A072CDE90010BA21002005F09EF851
:101EF000144890ED1A0B8DED020B2BA018210B4608
:101F00004FF4A072CDE90010DE21002005F08EF81C
:101F10000C4890ED1C0B8DED020B27A018210B46F1
:101F20004FF4A072CDE900104FF48171002005F04C
:101F30007DF802E0012009F0C9F83EE73F010020EA
:101F40000401002018000020312E45302E43313A84
:101F5000252E31306C660000322E45302E43323A49
:101F6000252E31306C660000332E45302E523A2536
:101F70002E31306C66000000342E45302E726164C4
:101F80003A252E31306C6600352E45312E43313ADC
:101F9000252E31306C660000362E45312E43323A04
:101FA000252E31306C660000372E45312E523A25F1
:101FB0002E31306C66000000382E45312E7261647F
:101FC0003A252E31306C660008010020B602002050
:101FD00051B18200A2F1C042126842F001038200B6
:101FE000A2F1C042136009E08200A2F1C04212686F
:101FF000034B1A408300A3F1C0431A6070470000EE
:10200000FEFF0F00D0E901121143C26811430269BB
:1020100011434269114382691143C2691143026A43
:102020001143426A1143826A1143C26A1143026B2F
:10203000114302689200A2F1C04211608168082930
:102040000BD101688900A1F1C041096841F040024B
:1020500001688900A1F1C0410A60416B0968426BC7
:10206000526841EA0211426B926841EA0221426BD6
:10207000928941EA0241426B128A41EA0251426B63
:10208000127D41EA0261426B926911430268521C5F
:102090009200A2F1C0421160C16AB1F5804F1BD11C
:1020A000816B0968826B526841EA0211826B926807
:1020B00041EA0221826B128A41EA0251826B127D4F
:1020C00041EA0261826B9269114302689200A2F1B7
:1020D000C042C2F8041107E06FF070420168890045
:1020E000A1F1C041C1F804217047F0B50A460021B2
:1020F0000023002400BF3DE0012505FA01F3156827
:1021000005EA03049C4234D105684F000326BE4013
:10211000B543056015794E00B54006683543056046
:102120001579012D02D01579022D16D185684F0041
:102130000326BE40B543856055794E00B54086689C
:1021400035438560456801268E40B5434560456846
:1021500096798E40B6B235434560C5684F00032678
:10216000BE40B543C560D5794E00B540C66835431D
:10217000C560491C1029BFD3F0BDF0B50023002471
:102180004D07ED0E02FA05F3CE1000F1200555F8CB
:1021900026504E07F70E0F26BE40B543CF1000F174
:1021A000200646F82750CE1000F1200555F826509D
:1021B00045EA0304CE1000F1200545F82640F0BDA5
:1021C00010B59FED041B9FED030B00F007F800F026
:1021D000E7FA10BD000000000000000010B52DED72
:1021E000048BB0EE408AF0EE608AB0EE419AF0EED9
:1021F000619A002404E02046FEF78EFD601CC4B204
:10220000022CF8DB002427E09FED160B174800EBAB
:10221000841080ED080B9FED130B144800EB841025
:1022200080ED0A0B9FED0F0B104800EB841080ED42
:10223000040B9FED0C0B0D4800EB841080ED060B9A
:102240000A4800EB841080ED008B084800EB8410F6
:1022500080ED029B601CC4B2022CD5DBBDEC048B6C
:1022600010BD00000000000000000000C8010020B8
:1022700000B52DED108B85B04022E44901F14000FE
:10228000FDF79EFFE24890ED000BE04880ED0C0B5F
:10229000E04890ED000BDD4880ED0E0B90ED1E2B1D
:1022A000B0EE420AF0EE620A90ED0E2BB0EE421A4A
:1022B000F0EE621A53EC102B51EC110BFEF745F8BF
:1022C00041EC180B09E09FEDD40B53EC102B51ECB3
:1022D000180BFEF73AF841EC180B9FEDD10B53ECBD
:1022E000102B51EC180BFEF779F9ECD309E09FEDB8
:1022F000CA0B53EC102B51EC180BFDF785FF41EC8A
:10230000180B9FEDC90B53EC102B51EC180BFEF77B
:102310004DF9ECD3C64890ED080BBC4880ED080B96
:10232000C34890ED180BB94880ED0A0B90ED182BBF
:10233000B0EE420AF0EE620A90ED082BB0EE421ABF
:10234000F0EE621A53EC102B51EC110BFDF7FDFF70
:10235000AE4AC2E90401104690ED1A2BB0EE420AD3
:10236000F0EE620A90ED0A2BB0EE421AF0EE621A1D
:1023700053EC102B51EC110BFDF7E7FFA34AC2E918
:102380000601AB4890ED0A1BB0EE410AF0EE610A7F
:1023900053EC182B51EC100BFDF7DDFF41EC190B42
:1023A0009A4890ED041BB0EE410AF0EE610A53EC3E
:1023B000102B51EC190BFDF7CBFF944AC2E9040135
:1023C0009B4890ED1A1BB0EE410AF0EE610A53EC07
:1023D000182B51EC100BFDF7BEFF41EC190B8B488D
:1023E00090ED061BB0EE410AF0EE610A53EC102BA3
:1023F00051EC190BFDF7ACFF844AC2E906018C4889
:1024000090ED0C2BB0EE420AF0EE620A104690ED11
:102410000E2BB0EE421AF0EE621A53EC102B51EC78
:10242000110BFDF7F1FECDE90201814890ED1C2B67
:10243000B0EE420AF0EE620A744890ED0E2BB0EE58
:10244000421AF0EE621A53EC102B51EC110BFDF70F
:10245000DBFECDE90001764890ED0C2BB0EE420A90
:10246000F0EE620A90ED1C2BB0EE421AF0EE621A0A
:1024700053EC102B51EC110BFDF767FF41EC1B0BDC
:10248000B0EE4B0AF0EE6B0A07F0D6FCB0EE409AC5
:10249000F0EE609A9DED020B07F0CEFCB0EE40EA44
:1024A000F0EE60EA594890ED061BB0EE410AF0EEFE
:1024B000610A53EC102B51EC1E0BFDF74CFF41EC65
:1024C0001B0B9DED000B07F0B7FCB0EE40EAF0EE01
:1024D00060EA4E4890ED041BB0EE410AF0EE610A4E
:1024E00053EC102B51EC1E0BFDF735FF41EC1D0B8F
:1024F00053EC1B2BFDF729FF41EC1A0B53EC192B66
:10250000FDF79BFF41EC1C0B404890ED001BB0EE2B
:10251000410AF0EE610A53EC102B51EC1C0BFDF755
:1025200073FE3A4A03C2424890ED0C2BB0EE420AC9
:10253000F0EE620A90ED1C2BB0EE421AF0EE621A39
:1025400053EC102B51EC110BFDF7FFFE41EC1C0B73
:10255000B0EE4C0AF0EE6C0A07F06EFCB0EE40AA4A
:10256000F0EE60AA9DED020B07F002FCB0EE40EA2F
:10257000F0EE60EA254890ED061BB0EE410AF0EE61
:10258000610A53EC102B51EC1E0BFDF7E4FE41ECFD
:102590001C0B9DED000B07F0EBFBB0EE40FAF0EEEC
:1025A00060FA51EC1F0B81F0004141EC1E0B174803
:1025B00090ED041BB0EE410AF0EE610A53EC102BD3
:1025C00051EC1E0BFDF7C7FE41EC1D0B53EC1C2B11
:1025D000FDF71AFE41EC1B0B53EC1A2BFDF72DFFF8
:1025E00041EC190B094890ED021BB0EE410AF0EEE8
:1025F000610A53EC102B51EC190BFDF705FE034A51
:10260000C2E9020105B0BDEC108B00BDC80100207D
:10261000A0000020A8000020112D4454FB211940E7
:10262000112D4454FB210940112D4454FB2109C0B4
:102630001800002001460E2901DDFF207047022905
:1026400001DB072903DD0C2903DB0E2901DC012056
:10265000F4E70220F2E70146022901DC012070477D
:10266000052901DC0220FAE70B2901DC0320F6E74B
:102670000E2901DC0920F2E7FF20F0E70146481EA1
:1026800000EB4000064A52F83020481E00EB4000A4
:10269000034B03EBC0004068B2FBF0F07047000052
:1026A0004001002010B50146074A52F82120536A24
:1026B000064A52F82140044A52F82120D26A521C9C
:1026C00004FB023010BD0000BC000020B40000205C
:1026D00001460F2926D2DFE801F025080A0D0F1167
:1026E000131517191B1D1F212300104870474FF0A9
:1026F0008040FBE70E48F9E70E48F7E70E48F5E79C
:102700000E48F3E70E48F1E70E48EFE70E48EDE715
:102710000E48EBE70E48E9E70E48E7E70E48E5E725
:102720000E48E3E700BF00BF0020DFE700000140E4
:102730000004004000080040000C00400010004071
:1027400000140040000401400040014000440140EA
:102750000048014000180040001C004000200040DC
:102760000146012901DC01207047072904DC881E8D
:10277000012202FA00F0F7E7082901DC0220F3E762
:102780000B2904DCC81D012202FA00F0ECE70E2937
:1027900004DC881F012202FA00F0E5E7FF20E3E7EE
:1027A00010B500212948FEF721FA00BF2748FEF79F
:1027B00028FA0028FAD1FF21254807F02CF9AA2190
:1027C000234807F028F96921214807F024F98821D6
:1027D0001F4807F020F9B5211D4807F01CF9FF211B
:1027E0001B4807F018F9AA21194807F014F97621B7
:1027F000174807F010F90021154807F00CF90021DF
:10280000134807F008F90020124908809FED120BC9
:10281000134880ED000B134880ED000B00240FE0FF
:102820009FED0D0B104800EB841080ED0C0B9FED1D
:102830000A0B0D4800EB841080ED0E0B601CC4B237
:10284000022CEDDB00F012F810BD000040640240E5
:10285000001401409800002000000000000000006B
:10286000A8000020A0000020C801002030B587B0DB
:10287000182101A8FDF7BDFC0025002490E0C4B993
:102880004A4807F03CF801A9085501A8005D552801
:102890000DD10124454807F032F801A9085501A8D7
:1028A000005D522801D102247AE0002478E000245F
:1028B00076E03E4807F023F82146621CD4B201AA14
:1028C00050540B2C06D00C2C28D00D2C2CD0162CB0
:1028D00064D12FE09DF804009DF8051008449DF890
:1028E000061008449DF8071008449DF80810084495
:1028F0009DF8091008449DF80A1008449DF80B1033
:1029000008449DF80C1008449DF80D100844C0B20E
:102910009DF80E10884200D0002440E09DF80F0082
:10292000552800D000243AE09DF81000532800D02C
:10293000002434E09DF80F009DF8101008449DF825
:10294000111008449DF8121008449DF81310084413
:102950009DF8141008449DF8151008449DF81610B1
:1029600008449DF8171008449DF818100844C0B298
:102970009DF81910884201D000240EE0012506E0E0
:1029800020210A4806F0CAFF012800D100E0F7E73D
:1029900000BF01210648FEF729F900E000BF00BF93
:1029A000002D3FF46CAF07B030BD000000140140B3
:1029B0004064024000BFFEE770B504460026174899
:1029C0000588408845431548808846F604018842BA
:1029D00016D112488079012812D100200F49887140
:1029E0002A2048812B2088810021084604F00CF918
:1029F00001200A4988712B2048812A20888103E020
:102A00000021084604F000F904F0FCFA002602E078
:102A100003480480761CAE42FAD370BDB602002093
:102A20008000006C10B50446002C66D16C4988719A
:102A3000F02008804FF4A07048800846808849F252
:102A4000413188420BD06648808846F604018842AE
:102A500005D06348808845F2103188421AD12C2075
:102A60005F4908812A2048812B2088810846808878
:102A700046F60401884205D05948808845F2103155
:102A8000884206D14FF4A070554908804FF4F07089
:102A90004880A1E05248808845F21051884210D108
:102AA0004FF430504E4908814FF4285048814FF47C
:102AB0002C5088814FF4F07008804FF448704880A3
:102AC0008AE04748808841F6631188420DD12C2066
:102AD000434908812B2048812A2088814FF4F070D7
:102AE00008804FF44870488076E022203C490881F5
:102AF00020204881212088816EE00120384988719A
:102B00004FF4A0700880F02048800846808849F281
:102B10004131884205D03248808845F210318842E0
:102B200007D12C202E4908812A2048812B2088811A
:102B30003FE02B48808846F60401884207D12C20CC
:102B4000274908812B2048812A20888131E02448A8
:102B5000808845F21051884210D14FF430502049FE
:102B600008814FF4285048814FF42C5088814FF44D
:102B7000487008804FF4F07048801AE01848808848
:102B800041F6631188420DD12C20154908812A2075
:102B900048812B2088814FF4487008804FF4F070F2
:102BA000488006E022200E4908812120488120200B
:102BB00088810B48808846F60401884205D0084881
:102BC000808845F21031884206D14FF4F0700449F4
:102BD00008804FF4A0704880002003F09FFE10BDD5
:102BE000B60200202DE9FF4F84B081468A460020BE
:102BF000039002900698A0EB09050798A0EB0A063F
:102C0000CDF80490CDF800A0002D01DD012705E0EE
:102C10000DB9002702E04FF0FF376D42002E02DDB4
:102C20004FF0010806E016B94FF0000802E04FF03F
:102C3000FF387642B54201DD2C4600E034464FF0C5
:102C4000000B21E0009A91B2019A90B200F022F8B4
:102C50000398284403900298304402900398A042BD
:102C600005DD0398001B03900198384401900298F9
:102C7000A04205DD0298001B02900098404400909D
:102C80000BF101001FFA80FB601C8345DADD08B000
:102C9000BDE8F08F30B504460D462946204603F0C6
:102CA000B3FF04F0AFF9024800880249088030BD44
:102CB000040100208000006C2DE9F04306460F4619
:102CC0009046002445460320A0EB48093CE07A1BCF
:102CD00091B2321990B2FFF7DDFF3A1B91B272192F
:102CE00090B2FFF7D7FF3A1991B2721990B2FFF77D
:102CF000D1FF7A1991B2321990B2FFF7CBFF7A194E
:102D000091B2321B90B2FFF7C5FF3A1991B2721B14
:102D100090B2FFF7BFFF7A1B91B2321B90B2FFF760
:102D2000B9FF3A1B91B2721B90B2FFF7B3FF641C5C
:102D3000B9F1000F03DAA000801D814404E0601B9C
:102D400080000A3081446D1EAC42C0DDBDE8F083D6
:102D500070B504460D4616465B48808849F24131FD
:102D6000884205D05848808845F21031884214D1F5
:102D70005549488904F03AF9201204F02BF9E0B2E1
:102D800004F028F95049888904F030F9281204F039
:102D900021F9E8B204F01EF98CE04B48808845F236
:102DA0001051884220D14849488904F01FF9201267
:102DB00004F010F944494989491C88B204F016F915
:102DC000E0B204F007F94049888904F00FF92812AD
:102DD00004F000F93C498989491C88B204F006F9DD
:102DE000E8B204F0F7F865E03748808841F66311EF
:102DF000884228D13448807920B933480088401E61
:102E0000001B84B23049488904F0F0F8201204F025
:102E1000E1F8E0B204F0DEF8201204F0DBF8E0B2F2
:102E200004F0D8F82849888904F0E0F8281204F062
:102E3000D1F8E8B204F0CEF8281204F0CBF8E8B2EA
:102E400004F0C8F836E02048808846F6040188423D
:102E50001DD11D488079012804D11B480088401EDF
:102E6000001B84B21849488904F0C0F8201204F00D
:102E7000B1F8E0B204F0AEF81349888904F0B6F86E
:102E8000281204F0A7F8E8B204F0A4F812E00E4803
:102E90008079012804D10C480088401E001B84B2B0
:102EA00009494889214604F0B7F807498889294625
:102EB00004F0B2F804480089044908804FF0D84073
:102EC000A0F8806070BD0000B60200207E00006C9B
:102ED00000B5A1B0002020900121802004F0E4FB87
:102EE00001217A2004F0E0FB0121084604F0ECFB0C
:102EF0004FF400701E9001208DF87C0000208DF8AA
:102F00007E0002208DF87D0001208DF87F001EA933
:102F1000FE48FFF7EAF84FF400401E9001208DF8BC
:102F20007C0000208DF87E0002208DF87D000120BD
:102F30008DF87F001EA9F648FFF7D7F84CF23370E2
:102F40001E9002208DF87C0000208DF87E0003206A
:102F50008DF87D0001208DF87F001EA9ED48FFF758
:102F6000C4F84FF680701E9002208DF87C0000207F
:102F70008DF87E0003208DF87D0001208DF87F0004
:102F80001EA9E548FFF7B1F84FF480501E900220CB
:102F90008DF87C0000208DF87E0003208DF87D00E8
:102FA00001208DF87F001EA9DC48FFF79EF84FF442
:102FB00080501E9002208DF87C0000208DF87E004D
:102FC00003208DF87D0001208DF87F001EA9D448D4
:102FD000FFF78BF80C220021CE48FFF7CEF80C2229
:102FE0000121CC48FFF7C9F80C220421C948FFF79A
:102FF000C4F80C220521C748FFF7BFF80C220821AE
:10300000C448FFF7BAF80C220921C248FFF7B5F807
:103010000C220A21BF48FFF7B0F80C220E21BD4850
:10302000FFF7ABF80C220F21BA48FFF7A6F80C22E5
:103030000721B948FFF7A1F80C220821B648FFF78D
:103040009CF80C220921B448FFF797F80C220A21BA
:10305000B148FFF792F80C220B21AF48FFF78DF82B
:103060000C221146AC48FFF788F80C220D21AA4823
:10307000FFF783F80C220E21A748FFF77EF80C22F9
:103080000F21A548FFF779F80C221146A348FFF756
:1030900074F80C221146A248FFF76FF80F20089031
:1030A000002009903C200A9000200B900C900D907D
:1030B0000E9009200190002002900820039000202B
:1030C000049005900690079006200F900020109025
:1030D00011901020129000201390159014901690CB
:1030E00017904FF480501890002019904FF48040B2
:1030F0001A9000201B9008A81C9001A81D900FA8F2
:10310000FEF780FF01210620FEF762FF03F0C6FBF9
:10311000322007F0DBFF0121002003F07DFF322089
:1031200007F0D4FF002003F0ADFB7E4988800846FD
:103130008088FF280ADB084680884FF6FF718842A6
:1031400004D078488088B0F5134F7CD1D32003F0A9
:103150004DFF03F08DFB7349888003F089FB7149B3
:10316000888003F085FB6F498880084680884FF689
:10317000FF7101EA00206B49888003F079FB6949FF
:1031800089880843674988800846808849F2413128
:10319000884258D0BF2003F029FF03F069FB614942
:1031A000888003F065FB5F49888003F061FB5D491F
:1031B000888003F05DFB5B498880084680884FF675
:1031C000FF7101EA00205749888003F051FB5549FF
:1031D00089880843534988800846808846F6040158
:1031E00088427AD0D42003F001FF03F041FB4D491F
:1031F000888003F03DFB4B49888003F039FB494947
:103200008880084680884FF6FF7101EA0020454912
:10321000888003F02DFB4349898808434149888011
:103220000846808845F21031884256D04FF45A4003
:1032300003F0DCFE03F01CFB3A4988804FF45B404E
:1032400003F0D4FE00E048E003F012FB354988802B
:10325000084680884FF6FF7101EA002031498880D6
:103260004FF45C4003F0C2FE03F002FB2D49898855
:1032700008432C49888008468088B0F5004F02D169
:1032800045F2105088802748808845F210518842C6
:1032900023D0A12003F0AAFE03F0EAFA2149888096
:1032A00003F0E6FA1F498880084680884FF6FF71D0
:1032B00001EA00201B49888003F0DAFA194989885D
:1032C0000843184988800846808845F26171884221
:1032D00003D141F66310134988801248808849F26F
:1032E0004131884211D00F48808845F21031884220
:1032F0000BD00C48808845F21051884205D009480F
:10330000808841F6631188422CD10DE0001C0240F8
:1033100000040240000C0240001002400014024071
:1033200000180240B6020020FE48006820F00F009E
:103330004FF02041C1F81C010846D0F81C0120F4D0
:103340007060C1F81C010846D0F81C0140F0030071
:10335000C1F81C010846D0F81C0140F40070C1F807
:103360001C0128E0F048808846F60401884205D018
:10337000ED4880884CF2055188421CD1E94800682C
:1033800020F00F004FF02041C1F81C010846D0F892
:103390001C0120F47060C1F81C010846D0F81C0123
:1033A00040F00A00C1F81C010846D0F81C0140F4A6
:1033B0004060C1F81C01DC48808849F241318842F4
:1033C0007ED1CF2003F012FE002003F003FEC120C7
:1033D00003F000FE302003F0FDFDED2003F006FEBB
:1033E000642003F0F7FD032003F0F4FD122003F046
:1033F000F1FD812003F0EEFDE82003F0F7FD8520CC
:1034000003F0E8FD102003F0E5FD7A2003F0E2FD73
:10341000CB2003F0EBFD392003F0DCFD2C2003F082
:10342000D9FD002003F0D6FD342003F0D3FD0220A7
:1034300003F0D0FDF72003F0D9FD202003F0CAFDF2
:10344000EA2003F0D3FD002003F0C4FD002003F0C8
:10345000C1FDC02003F0CAFD1B2003F0BBFDC1204D
:1034600003F0C4FD012003F0B5FDC52003F0BEFD4F
:10347000302003F0AFFD302003F0ACFDC72003F097
:10348000B5FDB72003F0A6FD362003F0AFFD4820C0
:1034900003F0A0FD3A2003F0A9FD552003F09AFDAA
:1034A000B12003F0A3FD002003F094FD1A2003F0E7
:1034B00091FDB62003F09AFD0A2003F08BFD00E099
:1034C00097E0A22003F086FDF22003F08FFD00209C
:1034D00003F080FD262003F089FD012003F07AFD32
:1034E000E02003F083FD0F2003F074FD2A2003F099
:1034F00071FD282003F06EFD082003F06BFD0E2007
:1035000003F068FD082003F065FD542003F062FD20
:10351000A92003F05FFD432003F05CFD0A2003F0C7
:1035200059FD0F2003F056FD002003F053FD00204D
:1035300003F050FD002003F04DFD002003F04AFD94
:10354000E12003F053FD002003F044FD152003F0BB
:1035500041FD172003F03EFD072003F03BFD112045
:1035600003F038FD062003F035FD2B2003F032FD7B
:10357000562003F02FFD3C2003F02CFD052003F026
:1035800029FD102003F026FD0F2003F023FD3F202E
:1035900003F020FD3F2003F01DFD0F2003F01AFD76
:1035A0002B2003F023FD002003F014FD002003F086
:1035B00011FD012003F00EFD3F2003F00BFD2A203A
:1035C00003F014FD002003F005FD002003F002FDD0
:1035D000002003F0FFFCEF2003F0FCFC112003F0BF
:1035E00005FD782007F072FD292003F0FFFC03F0B1
:1035F00022B94D48808846F6040188427ED11120C8
:1036000003F0F4FC142007F061FDD02003F0EEFC81
:10361000072003F0DFFC422003F0DCFC1D2003F058
:10362000D9FCD12003F0E2FC002003F0D3FC1A20E7
:1036300003F0D0FC092003F0CDFCD22003F0D6FC2F
:10364000012003F0C7FC222003F0C4FCC02003F0DB
:10365000CDFC102003F0BEFC3B2003F0BBFC00209F
:1036600003F0B8FC022003F0B5FC112003F0B2FC1B
:10367000C52003F0BBFC032003F0ACFCC82003F022
:10368000B5FC002003F0A6FC252003F0A3FC2120BC
:1036900003F0A0FC052003F09DFC002003F09AFC41
:1036A0000A2003F097FC652003F094FC252003F02A
:1036B00091FC772003F08EFC502003F08BFC0F2050
:1036C00003F088FC002003F085FCF82003F08EFC5A
:1036D000012003F07FFCFE2003F088FC002003F0B3
:1036E00079FC022003F076FC202003F07FFC3620DA
:1036F00003F07CFC082003F06DFC00E02FE03A2092
:1037000003F074FC552003F065FC2B2003F06EFCE5
:10371000002003F05FFC002003F05CFC012003F0BC
:1037200059FC03E01C0100A0B60200203F2003F07A
:1037300051FC2A2003F05AFC002003F04BFC00202F
:1037400003F048FC012003F045FCDF2003F042FCBD
:10375000782007F0BBFC292003F048FC47E7FE482F
:10376000808845F21031884240F07C87ED2003F0DC
:103770003DFC012003F02EFCFE2003F02BFCEE208C
:1037800003F034FCDE2003F025FC212003F022FCB2
:10379000F12003F02BFC012003F01CFCDF2003F0E0
:1037A00025FC102003F016FCC42003F01FFC8F2022
:1037B00003F010FCC62003F019FC002003F00AFC03
:1037C000E22003F007FCE22003F004FCE22003F017
:1037D00001FCBF2003F00AFCAA2003F0FBFBB02091
:1037E00003F004FC0D2003F0F5FB002003F0F2FBD6
:1037F0000D2003F0EFFB002003F0ECFB112003F0A1
:10380000E9FB002003F0E6FB192003F0E3FB0020B6
:1038100003F0E0FB212003F0DDFB002003F0DAFBE6
:103820002D2003F0D7FB002003F0D4FB3D2003F054
:10383000D1FB002003F0CEFB5D2003F0CBFB00208A
:1038400003F0C8FB5D2003F0C5FB002003F0C2FBC2
:10385000B12003F0CBFB802003F0BCFB002003F081
:10386000B9FB8B2003F0B6FB002003F0B3FB9620DE
:1038700003F0B0FB002003F0ADFBB22003F0B6FB79
:10388000002003F0A7FB002003F0A4FB022003F0BC
:10389000A1FB002003F09EFB032003F09BFB002014
:1038A00003F098FBB32003F0A1FB002003F092FB90
:1038B000002003F08FFB002003F08CFB002003F0BE
:1038C00089FB002003F086FB002003F083FB00202F
:1038D00003F080FB002003F07DFB002003F07AFB67
:1038E000002003F077FB002003F074FB002003F0BE
:1038F00071FB002003F06EFB002003F06BFB002047
:1039000003F068FB002003F065FB002003F062FB7E
:10391000002003F05FFB002003F05CFB002003F0BD
:1039200059FB002003F056FB002003F053FB00205E
:1039300003F050FB002003F04DFBB42003F056FBD6
:103940008B2003F047FB002003F044FB962003F09C
:1039500041FB002003F03EFBA12003F03BFB0020D5
:1039600003F038FBB52003F041FB022003F032FBEB
:10397000002003F02FFB032003F02CFB002003F0BA
:1039800029FB042003F026FB002003F023FBB620D4
:1039900003F02CFB002003F01DFB002003F01AFBBA
:1039A000B72003F023FB002003F014FB002003F0FA
:1039B00011FB3F2003F00EFB002003F00BFB5E2009
:1039C00003F008FB002003F005FB642003F002FB7A
:1039D000002003F0FFFA8C2003F0FCFA002003F033
:1039E000F9FAAC2003F0F6FA002003F0F3FADC2039
:1039F00003F0F0FA002003F0EDFA702003F0EAFA89
:103A0000002003F0E7FA902003F0E4FA002003F02E
:103A1000E1FAEB2003F0DEFA002003F0DBFADC2011
:103A200003F0D8FA002003F0D5FAB82003F0DEFA4C
:103A3000002003F0CFFA002003F0CCFA002003F0BE
:103A4000C9FA002003F0C6FA002003F0C3FA0020F0
:103A500003F0C0FA002003F0BDFA002003F0BAFA28
:103A6000BA2003F0C3FA242003F0B4FA002003F0D4
:103A7000B1FA002003F0AEFA002003F0ABFAC12047
:103A800003F0B4FA202003F0A5FA002003F0A2FA14
:103A9000542003F09FFA002003F09CFAFF2003F06B
:103AA00099FA002003F096FAC22003F09FFA0A2048
:103AB00003F090FA002003F08DFA042003F08AFA54
:103AC000002003F087FAC32003F090FA3C2003F0B3
:103AD00081FA002003F07EFA3A2003F07BFA0020FE
:103AE00003F078FA392003F075FA002003F072FA37
:103AF000372003F06FFA002003F06CFA3C2003F04B
:103B000069FA002003F066FA362003F063FA002019
:103B100003F060FA322003F05DFA002003F05AFA55
:103B20002F2003F057FA002003F054FA2C2003F062
:103B300051FA002003F04EFA292003F04BFA00203E
:103B400003F048FA262003F045FA002003F042FA79
:103B5000242003F03FFA01E0B6020020002003F029
:103B600039FA242003F036FA002003F033FA232038
:103B700003F030FA002003F02DFA3C2003F02AFA7B
:103B8000002003F027FA362003F024FA002003F087
:103B900021FA322003F01EFA002003F01BFA2F2036
:103BA00003F018FA002003F015FA2C2003F012FAA3
:103BB000002003F00FFA292003F00CFA002003F094
:103BC00009FA262003F006FA002003F003FA242065
:103BD00003F000FA002003F0FDF9242003F0FAF9C5
:103BE000002003F0F7F9232003F0F4F9002003F09C
:103BF000F1F9C42003F0FAF9622003F0EBF9002098
:103C000003F0E8F9052003F0E5F9002003F0E2F9FC
:103C1000842003F0DFF9002003F0DCF9F02003F04A
:103C2000D9F9002003F0D6F9182003F0D3F90020C9
:103C300003F0D0F9A42003F0CDF9002003F0CAF975
:103C4000182003F0C7F9002003F0C4F9502003F056
:103C5000C1F9002003F0BEF90C2003F0BBF90020ED
:103C600003F0B8F9172003F0B5F9002003F0B2F91A
:103C7000952003F0AFF9002003F0ACF9F32003F036
:103C8000A9F9002003F0A6F9E62003F0A3F900202B
:103C900003F0A0F9C52003F0A9F9322003F09AF946
:103CA000002003F097F9442003F094F9002003F07A
:103CB00091F9652003F08EF9002003F08BF976204E
:103CC00003F088F9002003F085F9882003F082F9D9
:103CD000002003F07FF9C62003F088F9202003F0CC
:103CE00079F9002003F076F9172003F073F900202A
:103CF00003F070F9012003F06DF9002003F06AF978
:103D0000C72003F073F9002003F064F9002003F0EA
:103D100061F9002003F05EF9002003F05BF9C82090
:103D200003F064F9002003F055F9002003F052F984
:103D3000002003F04FF9002003F04CF9C92003F0F4
:103D400055F9002003F046F9002003F043F9002064
:103D500003F040F9002003F03DF9002003F03AF9A8
:103D6000002003F037F9002003F034F9002003F0BD
:103D700031F9002003F02EF9002003F02BF9002088
:103D800003F028F9002003F025F9002003F022F9C0
:103D9000002003F01FF9002003F01CF9002003F0BD
:103DA00019F9E02003F022F9162003F013F900209E
:103DB00003F010F91C2003F00DF9002003F00AF9BC
:103DC000212003F007F9002003F004F9362003F066
:103DD00001F9002003F0FEF8462003F0FBF8002074
:103DE00003F0F8F8522003F0F5F8002003F0F2F8A1
:103DF000642003F0EFF8002003F0ECF87A2003F0E1
:103E0000E9F8002003F0E6F88B2003F0E3F8002047
:103E100003F0E0F8992003F0DDF8002003F0DAF871
:103E2000A82003F0D7F8002003F0D4F8B92003F05D
:103E3000D1F8002003F0CEF8C42003F0CBF8002026
:103E400003F0C8F8CA2003F0C5F8002003F0C2F858
:103E5000D22003F0BFF8002003F0BCF8D92003F013
:103E6000B9F8002003F0B6F8E02003F0B3F8002022
:103E700003F0B0F8F32003F0ADF8002003F0AAF847
:103E8000E12003F0B3F8162003F0A4F8002003F0BB
:103E9000A1F81C2003F09EF8002003F09BF82220DC
:103EA00003F098F8002003F095F8362003F092F81C
:103EB000002003F08FF8452003F08CF8002003F079
:103EC00089F8522003F086F8002003F083F864207C
:103ED00003F080F8002003F07DF87A2003F07AF8F0
:103EE000002003F077F88B2003F074F8002003F033
:103EF00071F8992003F06EF8002003F06BF8A82009
:103F000003F068F8002003F065F8B92003F062F8C8
:103F1000002003F05FF8C42003F05CF8002003F0F9
:103F200059F8CA2003F056F8002003F053F8D220C5
:103F300003F050F8002003F04DF8D82003F04AF8C1
:103F4000002003F047F8E02003F044F8002003F0DD
:103F500041F8F32003F03EF8002003F03BF8E220A4
:103F600003F044F8052003F035F8002003F032F8A0
:103F70000B2003F02FF8002003F02CF81B2003F097
:103F800029F8002003F026F8342003F023F800205D
:103F900003F020F8442003F01DF8002003F01AF885
:103FA0004F2003F017F8002003F014F8612003F00D
:103FB00011F8002003F00EF8792003F00BF8002030
:103FC00003F008F8882003F005F8002003F002F859
:103FD000972002F0FFFF002002F0FCFFA62002F075
:103FE000F9FF002002F0F6FFB72002F0F3FF0020F7
:103FF00002F0F0FFC22002F0EDFF002002F0EAFF25
:10400000C72002F0E7FF002002F0E4FFD12002F019
:10401000E1FF002002F0DEFFD62002F0DBFF0020EF
:1040200002F0D8FFDD2002F0D5FF002002F0D2FF21
:10403000F32002F0CFFF002002F0CCFFE32002F0DB
:10404000D5FF052002F0C6FF002002F0C3FF0A20C2
:1040500002F0C0FF002002F0BDFF1C2002F0BAFFFA
:10406000002002F0B7FF332002F0B4FF002002F07E
:10407000B1FF442002F0AEFF002002F0ABFF502061
:1040800002F0A8FF002002F0A5FF622002F0A2FFCC
:10409000002002F09FFF782002F09CFF002002F039
:1040A00099FF882002F096FF002002F093FF9720EE
:1040B00002F090FF002002F08DFFA62002F08AFFA0
:1040C000002002F087FFB72002F084FF002002F0FA
:1040D00081FFC22002F07EFF002002F07BFFC7209C
:1040E00002F078FF002002F075FFD12002F072FF8D
:1040F000002002F06FFFD52002F06CFF002002F0DC
:1041000069FFDD2002F066FF002002F063FFF3206C
:1041100002F060FF002002F05DFFE42002F066FF85
:10412000012002F057FF002002F054FF012002F0AE
:1041300051FF002002F04EFF022002F04BFF002052
:1041400002F048FF2A2002F045FF002002F042FF63
:104150003C2002F03FFF002002F03CFF4B2002F029
:1041600039FF002002F036FF5D2002F033FF00200F
:1041700002F030FF742002F02DFF002002F02AFF31
:10418000842002F027FF002002F024FF932002F099
:1041900021FF002002F01EFFA22002F01BFF0020E2
:1041A00002F018FFB32002F015FF002002F012FF0A
:1041B000BE2002F00FFF002002F00CFFC42002F02E
:1041C00009FF002002F006FFCD2002F003FF0020CF
:1041D00002F000FFD32002F0FDFE002002F0FAFE04
:1041E000DD2002F0F7FE002002F0F4FEF32002F0E2
:1041F000F1FE002002F0EEFEE52002F0F7FE0020C6
:1042000002F0E8FE002002F0E5FE002002F0E2FEEF
:10421000002002F0DFFE022002F0DCFE002002F0AF
:10422000D9FE292002F0D6FE002002F0D3FE3C2069
:1042300002F0D0FE002002F0CDFE4B2002F0CAFEBC
:10424000002002F0C7FE5D2002F0C4FE002002F054
:10425000C1FE742002F0BEFE002002F0BBFE8420EE
:1042600002F0B8FE002002F0B5FE932002F0B2FE8C
:10427000002002F0AFFEA22002F0ACFE002002F00F
:10428000A9FEB32002F0A6FE002002F0A3FEBE208D
:1042900002F0A0FE002002F09DFEC42002F09AFE73
:1042A000002002F097FECD2002F094FE002002F0E4
:1042B00091FED32002F08EFE002002F08BFEDC2067
:1042C00002F088FE002002F085FEF32002F082FE5C
:1042D000002002F07FFEE62002F088FE112002F0AE
:1042E00079FE002002F076FE342002F073FE0020FA
:1042F00002F070FE562002F06DFE002002F06AFE11
:10430000762002F067FE002002F064FE772002F0C3
:1043100061FE002002F05EFE662002F05BFE0020DF
:1043200002F058FE882002F055FE002002F052FEF6
:10433000992002F04FFE002002F04CFEBB2002F05C
:1043400049FE002002F046FE992002F043FE0020C4
:1043500002F040FE662002F03DFE002002F03AFE30
:10436000552002F037FE002002F034FE552002F006
:1043700031FE002002F02EFE452002F02BFE002030
:1043800002F028FE432002F025FE002002F022FE6B
:10439000442002F01FFE002002F01CFEE72002F085
:1043A00025FE322002F016FE002002F013FE5520FA
:1043B00002F010FE002002F00DFE762002F00AFE50
:1043C000002002F007FE662002F004FE002002F04A
:1043D00001FE672002F0FEFD002002F0FBFD6720D9
:1043E00002F0F8FD002002F0F5FD872002F0F2FD5A
:1043F000002002F0EFFD992002F0ECFD002002F019
:10440000E9FDBB2002F0E6FD002002F0E3FD99206B
:1044100002F0E0FD002002F0DDFD772002F0DAFD81
:10442000002002F0D7FD442002F0D4FD002002F06D
:10443000D1FD562002F0CEFD002002F0CBFD23205E
:1044400002F0C8FD002002F0C5FD332002F0C2FDDD
:10445000002002F0BFFD452002F0BCFD002002F06C
:10446000B9FDE82002F0C2FD002002F0B3FD0020FB
:1044700002F0B0FD992002F0ADFD002002F0AAFD8F
:10448000872002F0A7FD002002F0A4FD882002F0A2
:10449000A1FD002002F09EFD772002F09BFD002090
:1044A00002F098FD662002F095FD002002F092FDDA
:1044B000882002F08FFD002002F08CFDAA2002F07F
:1044C00089FD002002F086FDBB2002F083FD002064
:1044D00002F080FD992002F07DFD002002F07AFDBF
:1044E000662002F077FD002002F074FD552002F0F6
:1044F00071FD002002F06EFD552002F06BFD0020E2
:1045000002F068FD442002F065FD002002F062FD2B
:10451000442002F05FFD002002F05CFD552002F017
:1045200059FD002002F056FDE92002F05FFDAA20AF
:1045300002F050FD002002F04DFD002002F04AFD87
:10454000002002F047FD002002F050FDAA2002F0FA
:1045500041FDCF2002F04AFD002002F03BFD00208B
:1045600002F038FD002002F035FD002002F032FD9F
:10457000002002F02FFD002002F02CFD002002F0B0
:1045800029FD002002F026FD002002F023FD00207E
:1045900002F020FD002002F01DFD002002F01AFDB7
:1045A000002002F017FD002002F014FD002002F0B0
:1045B00011FD002002F00EFD002002F00BFDF020A6
:1045C00002F014FD002002F005FD502002F002FD73
:1045D000002002F0FFFC002002F0FCFC002002F0B2
:1045E000F9FCF32002F002FD002002F0F3FCF920B8
:1045F00002F0FCFC062002F0EDFC102002F0EAFCC8
:10460000292002F0E7FC002002F0E4FC3A2002F04E
:10461000EDFC552002F0DEFC112002F0E7FC6420E6
:1046200006F054FD292002F0E1FC352002F0DEFC0A
:10463000002002F0CFFC512002F0D8FCFF2002F055
:10464000C9FC532002F0D2FC2C2002F0C3FC552000
:1046500002F0CCFC822002F0BDFC2C2002F0C6FC53
:1046600002F0E9B8FE48808845F2105188427DD1B9
:1046700055214FF4704002F0CFFCAA214FF2010007
:1046800002F0CAFC52214FF2020002F0C5FC0821E0
:104690004FF2030002F0C0FC01214FF2040002F0CF
:1046A000BBFC0D214FF4304002F0B6FC0D214BF263
:1046B000010002F0B1FC0D214BF2020002F0ACFC53
:1046C00034214FF4364002F0A7FC34214BF2016054
:1046D00002F0A2FC34214BF2026002F09DFC0D219D
:1046E0004FF4314002F098FC0D214BF2011002F022
:1046F00093FC0D214BF2021002F08EFC34214FF49A
:10470000374002F089FC34214BF2017002F084FC46
:1047100034214BF2027002F07FFC00214FF4324052
:1047200002F07AFC00214BF2012002F075FC00211E
:104730004BF2022002F070FC24214FF4384002F0CA
:104740006BFC24214BF6010002F066FC24214BF6A1
:10475000020002F061FC01214FF43F4002F05CFCDA
:104760000F214FF4334002F057FC00E0FDE30F212E
:104770004BF2013002F050FC0F214BF2023002F0FC
:104780004BFC34214FF4394002F046FC34214BF607
:10479000011002F041FC34214BF6021002F03CFC07
:1047A00008214FF4354002F037FC08214BF201504C
:1047B00002F032FC08214BF2025002F02DFC0321E2
:1047C0004FF4424002F028FC24214FF43A4002F01A
:1047D00023FC24214BF6012002F01EFC24214BF681
:1047E000022002F019FC00214FF43C4002F014FCBE
:1047F00078214BF6014002F00FFC00214BF60240FD
:1048000002F00AFC00214FF43D4002F005FC782143
:104810004BF6015002F000FC00214BF6025002F072
:10482000FBFB00214FF43E4002F0F6FB64214BF607
:10483000016002F0F1FB00214FF4514002F0ECFB6B
:1048400033214DF2011002F0E7FB00214DF202107E
:1048500002F0E2FB34214DF2031002F0DDFB0021F7
:104860004DF2041002F0D8FB3A214DF2051002F08F
:10487000D3FB00214DF2061002F0CEFB4A214DF28F
:10488000071002F0C9FB00214DF2081002F0C4FB32
:104890005C214DF2091002F0BFFB00214DF20A101D
:1048A00002F0BAFB81214DF20B1002F0B5FB0021A2
:1048B0004DF20C1002F0B0FBA6214DF20D1002F0EB
:1048C000ABFB00214DF20E1002F0A6FBE5214DF2EC
:1048D0000F1002F0A1FB01214DF2101002F09CFB21
:1048E00013214DF2111002F097FB01214DF212102D
:1048F00002F092FB54214DF2131002F08DFB0121C6
:104900004DF2141002F088FB82214DF2151002F0D6
:1049100083FB01214DF2161002F07EFBCA214DF2FD
:10492000171002F079FB02214DF2181002F074FB0F
:1049300000214DF2191002F06FFB02214DF21A1006
:1049400002F06AFB01214DF21B1002F065FB02210F
:104950004DF21C1002F060FB34214DF21D1002F0EC
:104960005BFB02214DF21E1002F056FB67214DF257
:104970001F1002F051FB02214DF2201002F04CFBFF
:1049800084214DF2211002F047FB02214DF222104A
:1049900002F042FBA4214DF2231002F03DFB022164
:1049A0004DF2241002F038FBB7214DF2251002F031
:1049B00033FB02214DF2261002F02EFBCF214DF2E7
:1049C000271002F029FB02214DF2281002F024FBEF
:1049D000DE214DF2291002F01FFB02214DF22A10B8
:1049E00002F01AFBF2214DF22B1002F015FB02210E
:1049F0004DF22C1002F010FBFE214DF22D1002F0B2
:104A00000BFB03214DF22E1002F006FB10214DF29C
:104A10002F1002F001FB03214DF2301002F0FCFADE
:104A200033214DF2311002F0F7FA03214DF232102A
:104A300002F0F2FA6D214DF2331002F0EDFA00218E
:104A40004FF4524002F0E8FA33214DF2012002F017
:104A5000E3FA00214DF2022002F0DEFA342101E0F7
:104A6000B60200204DF2032002F0D6FA00214DF2EA
:104A7000042002F0D1FA3A214DF2052002F0CCFADE
:104A800000214DF2062002F0C7FA4A214DF207201C
:104A900002F0C2FA00214DF2082002F0BDFA5C21BA
:104AA0004DF2092002F0B8FA00214DF20A2002F07E
:104AB000B3FA81214DF20B2002F0AEFA00214DF243
:104AC0000C2002F0A9FAA6214DF20D2002F0A4FA62
:104AD00000214DF20E2002F09FFAE5214DF20F2049
:104AE00002F09AFA01214DF2102002F095FA1321FA
:104AF0004DF2112002F090FA01214DF2122002F045
:104B00008BFA54214DF2132002F086FA01214DF266
:104B1000142002F081FA82214DF2152002F07CFA75
:104B200001214DF2162002F077FACA214DF217202A
:104B300002F072FA02214DF2182002F06DFA002103
:104B40004DF2192002F068FA02214DF21A2002F00B
:104B500063FA01214DF21B2002F05EFA02214DF2B0
:104B60001C2002F059FA34214DF21D2002F054FAB3
:104B700002214DF21E2002F04FFA67214DF21F2054
:104B800002F04AFA02214DF2202002F045FA842177
:104B90004DF2212002F040FA02214DF2222002F0D3
:104BA0003BFAA4214DF2232002F036FA02214DF205
:104BB000242002F031FAB7214DF2252002F02CFA20
:104BC00002214DF2262002F027FACF214DF22720B4
:104BD00002F022FA02214DF2282002F01DFADE2115
:104BE0004DF2292002F018FA02214DF22A2002F09B
:104BF00013FAF2214DF22B2002F00EFA02214DF2AF
:104C00002C2002F009FAFE214DF22D2002F004FAC8
:104C100003214DF22E2002F0FFF910214DF22F203A
:104C200002F0FAF903214DF2302002F0F5F93321B8
:104C30004DF2312002F0F0F903214DF2322002F062
:104C4000EBF96D214DF2332002F0E6F900214FF42B
:104C5000534002F0E1F933214DF2013002F0DCF96A
:104C600000214DF2023002F0D7F934214DF2033029
:104C700002F0D2F900214DF2043002F0CDF93A21D0
:104C80004DF2053002F0C8F900214DF2063002F075
:104C9000C3F94A214DF2073002F0BEF900214DF26E
:104CA000083002F0B9F95C214DF2093002F0B4F994
:104CB00000214DF20A3002F0AFF981214DF20B30A4
:104CC00002F0AAF900214DF20C3002F0A5F9A6215C
:104CD0004DF20D3002F0A0F900214DF20E3002F03D
:104CE0009BF9E5214DF20F3002F096F901214DF2CA
:104CF000103002F091F913214DF2113002F08CF9CD
:104D000001214DF2123002F087F954214DF2133097
:104D100002F082F901214DF2143002F07DF9822176
:104D20004DF2153002F078F901214DF2163002F003
:104D300073F9CA214DF2173002F06EF902214DF2DB
:104D4000183002F069F900214DF2193002F064F9CF
:104D500002214DF21A3002F05FF901214DF21B30B1
:104D600002F05AF902214DF21C3002F055F93421BB
:104D70004DF21D3002F050F902214DF21E3002F0CA
:104D80004BF967214DF21F3002F046F902214DF236
:104D9000203002F041F984214DF2213002F03CF93B
:104DA00002214DF2223002F037F9A4214DF22330D6
:104DB00002F032F902214DF2243002F02DF9B72130
:104DC0004DF2253002F028F902214DF2263002F092
:104DD00023F9CF214DF2273002F01EF902214DF2C6
:104DE000283002F019F9DE214DF2293002F014F9D1
:104DF00002214DF22A3002F00FF9F2214DF22B3050
:104E000002F00AF902214DF22C3002F005F9FE21E0
:104E10004DF22D3002F000F903214DF22E3002F058
:104E2000FBF810214DF22F3002F0F6F803214DF27D
:104E3000303002F0F1F833214DF2313002F0ECF86D
:104E400003214DF2323002F0E7F86D214DF233309C
:104E500002F0E2F800214FF4544002F0DDF8332173
:104E60004DF2014002F0D8F800214DF2024002F06C
:104E7000D3F834214DF2034002F0CEF800214DF278
:104E8000044002F0C9F83A214DF2054002F0C4F89E
:104E900000214DF2064002F0BFF84A214DF20740D2
:104EA00002F0BAF800214DF2084002F0B5F85C219A
:104EB0004DF2094002F0B0F800214DF20A4002F034
:104EC000ABF881214DF20B4002F0A6F800214DF223
:104ED0000C4002F0A1F8A6214DF20D4002F09CF822
:104EE00000214DF20E4002F097F8E5214DF20F40FF
:104EF00002F092F801214DF2104002F08DF81321DA
:104F00004DF2114002F088F801214DF2124002F0FA
:104F100083F854214DF2134002F07EF801214DF246
:104F2000144002F079F882214DF2154002F074F835
:104F300001214DF2164002F06FF8CA214DF21740E0
:104F400002F06AF802214DF2184002F065F80021E3
:104F50004DF2194002F060F802214DF21A4002F0C1
:104F60005BF801214DF21B4000E006E302F054F82B
:104F700002214DF21C4002F04FF834214DF21D4049
:104F800002F04AF802214DF21E4002F045F8672176
:104F90004DF21F4002F040F802214DF2204002F095
:104FA0003BF884214DF2214002F036F802214DF207
:104FB000224002F031F8A4214DF2234002F02CF8F7
:104FC00002214DF2244002F027F8B7214DF225408E
:104FD00002F022F802214DF2264002F01DF8CF2106
:104FE0004DF2274002F018F802214DF2284002F05D
:104FF00013F8DE214DF2294002F00EF802214DF2A5
:105000002A4002F009F8F2214DF22B4002F004F898
:1050100002214DF22C4001F0FFFFFE214DF22D4008
:1050200001F0FAFF03214DF22E4001F0F5FF1021AF
:105030004DF22F4001F0F0FF03214DF2304001F01E
:10504000EBFF33214DF2314001F0E6FF03214DF239
:10505000324001F0E1FF6D214DF2334001F0DCFF01
:1050600000214FF4554001F0D7FF33214DF201509C
:1050700001F0D2FF00214DF2025001F0CDFF3421AA
:105080004DF2035001F0C8FF00214DF2045001F031
:10509000C3FF3A214DF2055001F0BEFF00214DF251
:1050A000065001F0B9FF4A214DF2075001F0B4FF5C
:1050B00000214DF2085001F0AFFF5C214DF2095084
:1050C00001F0AAFF00214DF20A5001F0A5FF812155
:1050D0004DF20B5001F0A0FF00214DF20C5001F0F9
:1050E0009BFFA6214DF20D5001F096FF00214DF2DD
:1050F0000E5001F091FFE5214DF20F5001F08CFFB1
:1051000001214DF2105001F087FF13214DF2115093
:1051100001F082FF01214DF2125001F07DFF542178
:105120004DF2135001F078FF01214DF2145001F0BF
:1051300073FF82214DF2155001F06EFF01214DF2F7
:10514000165001F069FFCA214DF2175001F064FFBB
:1051500002214DF2185001F05FFF00214DF219506D
:1051600001F05AFF02214DF21A5001F055FF0121C2
:105170004DF21B5001F050FF02214DF21C5001F086
:105180004BFF34214DF21D5001F046FF02214DF23C
:105190001E5001F041FF67214DF21F5001F03CFF0E
:1051A00002214DF2205001F037FF84214DF22150B1
:1051B00001F032FF02214DF2225001F02DFFA42117
:1051C0004DF2235001F028FF02214DF2245001F04E
:1051D00023FFB7214DF2255001F01EFF02214DF2B1
:1051E000265001F019FFCF214DF2275001F014FF96
:1051F00002214DF2285001F00FFFDE214DF229501F
:1052000001F00AFF02214DF22A5001F005FFF221C0
:105210004DF22B5001F000FF02214DF22C5001F015
:10522000FBFEFE214DF22D5001F0F6FE03214DF262
:105230002E5001F0F1FE10214DF22F5001F0ECFE46
:1052400003214DF2305001F0E7FE33214DF2315091
:1052500001F0E2FE03214DF2325001F0DDFE6D213E
:105260004DF2335001F0D8FE00214FF4564001F0CA
:10527000D3FE33214DF2016001F0CEFE00214DF24C
:10528000026001F0C9FE34214DF2036001F0C4FE5A
:1052900000214DF2046001F0BFFE3A214DF205609D
:1052A00001F0BAFE00214DF2066001F0B5FE4A2180
:1052B0004DF2076001F0B0FE00214DF2086001F0F0
:1052C000ABFE5C214DF2096001F0A6FE00214DF21B
:1052D0000A6001F0A1FE81214DF20B6001F09CFEFD
:1052E00000214DF20C6001F097FEA6214DF20D60F9
:1052F00001F092FE00214DF20E6001F08DFEE521DD
:105300004DF20F6001F088FE01214DF2106001F0B6
:1053100083FE13214DF2116001F07EFE01214DF25A
:10532000126001F079FE54214DF2136001F074FE19
:1053300001214DF2146001F06FFE82214DF21560E3
:1053400001F06AFE01214DF2166001F065FECA21EE
:105350004DF2176001F060FE02214DF2186001F07D
:105360005BFE00214DF2196001F056FE02214DF264
:105370001A6001F051FE01214DF21B6001F04CFE5C
:1053800002214DF21C6001F047FE34214DF21D60F8
:1053900001F042FE02214DF21E6001F03DFE672148
:1053A0004DF21F6001F038FE02214DF2206001F045
:1053B00033FE84214DF2216001F02EFE02214DF2D8
:1053C000226001F029FEA4214DF2236001F024FEA9
:1053D00002214DF2246001F01FFEB7214DF225603D
:1053E00001F01AFE02214DF2266001F015FECF21D8
:1053F0004DF2276001F010FE02214DF2286001F00D
:105400000BFEDE214DF2296001F006FE02214DF275
:105410002A6001F001FEF2214DF22B6001F0FCFD4B
:1054200002214DF22C6001F0F7FDFE214DF22D60BE
:1054300001F0F2FD03214DF22E6001F0EDFD10218F
:105440004DF22F6001F0E8FD03214DF2306001F0D4
:10545000E3FD33214DF2316001F0DEFD03214DF219
:10546000326001F0D9FD6D214DF2336001F0D4FDC1
:1054700055214FF4704001F0CFFDAA214FF20100F9
:1054800001F0CAFD52214FF2020001F0C5FD0821D2
:105490004FF2030001F0C0FD00214FF2040001F0C3
:1054A000BBFDCC214FF4314001F0B6FD00214BF2A1
:1054B000011001F0B1FD05214FF4364001F0ACFDC3
:1054C00070214FF4374001F0A7FD70214BF20170BD
:1054D00001F0A2FD01214FF4384001F09DFD0321B0
:1054E0004BF6010001F098FD03214BF6020001F09C
:1054F00093FD03214BF6030001F08EFD02214FF4D2
:105500003C4001F089FD00214BF6014001F084FD93
:1055100000214BF6024001F07FFDD0214FF44940BD
:1055200001F07AFD02214CF6011001F075FD5021C9
:105530004CF6021001F070FD50214CF6031001F002
:105540006BFD50214CF6041001F066FD00214FF474
:10555000545001F061FD55214FF4685001F05CFD9D
:105560004FF4885001F042FD782005F0CBFD4FF458
:10557000245001F03BFD01F05EB9FE48808849F2FD
:10558000253188427ED147F6F001E52001F044FD47
:105590004FF48071012001F03FFD4FF4E0610220E3
:1055A00001F03AFD41F23001032001F035FD002108
:1055B000042001F031FD40F20221082001F02CFD11
:1055C0000021092001F028FD00210A2001F024FD1E
:1055D00000210C2001F020FD00210D2001F01CFD18
:1055E00000210F2001F018FD0021102001F014FD12
:1055F0000721112001F010FD0021122001F00CFD07
:105600000021132001F008FD0021072001F004FD16
:1056100041F29061102001F0FFFC40F2272111209F
:1056200001F0FAFC9D21122001F0F6FC4FF4C85164
:10563000132001F0F1FC2521292001F0EDFC0D21C2
:105640002B2001F0E9FC0721302001F0E5FC40F2BD
:105650000331312001F0E0FC0321322001F0DCFCB9
:1056600040F20621352001F0D7FC0821362001F058
:10567000D3FC40F20641372001F0CEFC4FF44171DB
:10568000382000E057E001F0C7FC0721392001F085
:10569000C3FC40F202613C2001F0BEFC08213D2029
:1056A00001F0BAFC0021502001F0B6FCEF2151209E
:1056B00001F0B2FC0021522001F0AEFC40F23F119B
:1056C000532001F0A9FC4FF42741602001F0A4FC15
:1056D0000121612001F0A0FC00216A2001F09CFC66
:1056E0000021802001F098FC0021812001F094FC31
:1056F0000021822001F090FC0021832001F08CFC2D
:105700000021842001F088FC0021852001F084FC28
:105710001021902001F080FC4FF4C061922001F034
:105720007BFC40F23311072001F076FC222100209F
:1057300001F072FC1FE78F48808849F228318842C7
:105740007ED141F28F01EC2001F066FC41F2342160
:10575000EF2001F061FC4FF48071012001F05CFC4E
:105760004FF4E061022001F057FC41F230010320C8
:1057700001F052FC0021042001F04EFC40F2022115
:10578000082001F049FC0021092001F045FC00211E
:105790000A2001F041FC01210C2001F03DFC002118
:1057A0000D2001F039FC00210F2001F035FC002113
:1057B000102001F031FC0721112001F02DFC002107
:1057C000122001F029FC0021132001F025FC012109
:1057D000072001F021FC322005F078FC41F29041D5
:1057E000102001F019FC40F22721112001F014FCD7
:1057F000322005F06BFC8A21122001F00DFC3220D2
:1058000005F064FC4FF4D051132001F005FC062193
:10581000292001F001FC0D212B2001F0FDFB32209D
:1058200005F054FC0021202001F0F6FB002121208E
:1058300001F0F2FB322005F049FC0021302000E0AD
:1058400074E001F0E9FB40F20461312001F0E4FB77
:1058500040F20531322001F0DFFB0021352001F05C
:10586000DBFB40F60941362001F0D6FB4FF4017115
:10587000372001F0D1FB40F20131382001F0CCFBA0
:1058800040F20771392001F0C7FB00213C2001F0F4
:10589000C3FB40F60A213D2001F0BEFB322005F09B
:1058A00015FC0021502001F0B7FBEF21512001F041
:1058B000B3FB0021522001F0AFFB40F23F11532017
:1058C00001F0AAFB4FF42741602001F0A5FB012164
:1058D000612001F0A1FB00216A2001F09DFB002165
:1058E000802001F099FB0021812001F095FB00212F
:1058F000822001F091FB0021832001F08DFB00212B
:10590000842001F089FB0021852001F085FB102116
:10591000902001F081FB4FF4C061922001F07CFBEC
:1059200040F23311072001F077FB24E6114880880C
:1059300049F2203188427DD10021084601F06CFBFC
:105940004FF48071012001F067FB4FF4E061022009
:1059500001F062FB41F23001032001F05DFB002108
:10596000042001F059FB40F20221082001F054FB11
:10597000002101E0B6020020092001F04DFB0021CA
:105980000A2001F049FB01210C2001F045FB002118
:105990000D2001F041FB00210F2001F03DFB3220E2
:1059A00005F094FB40F20111072001F035FB322095
:1059B00005F08CFB4FF48651102001F02DFB0721E0
:1059C000112001F029FB4FF48871122001F024FB13
:1059D0004FF43061132001F01FFB0021292001F05A
:1059E0001BFB44F210012B2001F016FB002150207C
:1059F00001F012FBEF21512001F00EFB002152209B
:105A000001F00AFB40F23F11532001F005FB4FF477
:105A10001C51602001F000FB0121612001F0FCFA23
:105A200000216A2001F0F8FA0021802001F0F4FA48
:105A3000002100E031E0812001F0EEFA0021822017
:105A400001F0EAFA0021832001F0E6FA0021842027
:105A500001F0E2FA0021852001F0DEFA1021902009
:105A600001F0DAFA0021922001F0D6FA0121932008
:105A700001F0D2FA4FF48871952001F0CDFA00219F
:105A8000972001F0C9FA0021982001F0C5FA40F2F0
:105A90007311072001F0C0FA6DE5FE48808849F2D5
:105AA000313188427DD141F21401E72001F0B4FA8E
:105AB0004FF48071012001F0AFFA4FF40071022021
:105AC00001F0AAFA41F23801032001F0A5FA40F2F0
:105AD0000221082001F0A0FA0021092001F09CFA1F
